:100000000C94DE000C9406010C9406010C9406017D
:100010000C9406010C9406010C9406010C94060144
:100020000C9406010C9406010C9435060C940E07F2
:100030000C9406010C9406010C9406010C94060124
:100040000C9406010C9406010C9406010C94060114
:100050000C9406010C9406010C9406010C94EB051B
:100060000C9406010C9406010C9406010C940601F4
:100070000C9406010C9406010C9406010C940601E4
:100080000C9406010C9406010C9406010C940601D4
:100090000C9406010C9406010C9406010C940601C4
:1000A0000C9406010C9406010C9406018E0191013A
:1000B000800184018801B201B201B2019501990168
:1000C0009D01A301A701B201AD01000000002500C0
:1000D00028002B002E00310004040404040304054E
:1000E00002020202040302020202060606060606D5
:1000F00004040202020404040802011040804010BB
:10010000204080408008020401804020100201103D
:100110008010204040200000000200090F00000372
:100120000401000C000000000000000000000000BE
:1001300000000000070605040100080A0B0C0D0969
:10014000080B000202020100090400000102020083
:100150000005240010010524010101042402060504
:100160002406000107058103100040090401000274
:100170000A00000007050202400000070583024054
:10018000000004030904556E6B6E6F776E006144C6
:1001900072756D730012010002000000401C15060C
:1001A0009200010102030112010002EF0201401C52
:1001B00015069200010102030100780B11241FBEF5
:1001C000CFEFDAE0DEBFCDBF11E0A0E0B1E0E8E7BD
:1001D000F8E102C005900D92AA36B107D9F722E0E6
:1001E000AAE6B1E001C01D92A93AB207E1F710E01A
:1001F000CEEDD0E004C02197FE010E94190CCD3D48
:10020000D107C9F70E944B090C943A0C0C940000DA
:10021000CF92DF92EF92FF920F931F93CF93DF93D2
:100220006C017A018B01C0E0D0E0CE15DF0589F0CA
:10023000D8016D918D01D601ED91FC910190F08175
:10024000E02DC6010995892B11F47E0102C021968B
:10025000ECCFC701DF91CF911F910F91FF90EF90ED
:10026000DF90CF900895CF93DF931F92CDB7DEB785
:100270006983DC01ED91FC910280F381E02D41E086
:1002800050E0BE016F5F7F4F09950F90DF91CF91D6
:100290000895FC018485958597FD0BC09FB7F89460
:1002A00082E08093E9008091F2009FBF90E0019688
:1002B00008959FB7F89482E08093E9008091F2005E
:1002C0009FBF90E00895362F90E0FC01EA5EFE4F5C
:1002D0004491FC01E950FF4F2491FC01E852FF4F8B
:1002E0008491882309F451C04423E1F150E0FA01DC
:1002F0003197EF30F105B0F5EA5AFF4F0C94190C25
:10030000909180009F7707C0909180009F7D03C0EF
:1003100090918000977F9093800024C094B59F7740
:1003200002C094B59F7D94BD1DC0909190009F77B1
:1003300007C0909190009F7D03C090919000977F9F
:10034000909390000FC09091C0009F7703C0909150
:10035000C0009F7D9093C00005C09091C200977F20
:100360009093C200E82FF0E0EE0FFF1FE653FF4F1F
:10037000A591B4918FB7F894EC91311103C02095F9
:100380002E2301C02E2B2C938FBF089580E090E088
:10039000089580E00895FC0182818F5BFB018083DA
:1003A00081E008958F929F92AF92BF92CF92DF9299
:1003B000EF92FF920F931F93CF93DF9300D01F9282
:1003C000CDB7DEB7382F8B0180914202811103C077
:1003D0008FEF9FEF7DC080913F0280FF05C080912D
:1003E000E00082608093E0004A018AEFF82E832FBC
:1003F0008770E82E9FE3C92E832F8072B82E2AE3E0
:10040000D22E832F8074A82E8114910409F457C032
:100410008FB7F894E092E9009091E80095FF05C04D
:100420009091F2002C2D291B01C020E08FBF2111DB
:1004300010C0FA94FF2061F261E070E080E090E08B
:1004400039834A835B830E94B10539814A815B818C
:10045000DBCF822F90E0881699060CF4282D6FB719
:10046000F894E092E9008091E80085FF26C0822F91
:1004700090E0881A990ABB2029F02150A8F0109228
:10048000F100FBCFF80137FF07C0215058F07491FD
:100490007093F1003196F9CF215020F07191709353
:1004A000F100FACF080F191F8091E80085FF0DC0F9
:1004B0008114910411F4A11008C06FBFA5CF5D98FD
:1004C00084E680934002CA0103C0D092E800F5CFD1
:1004D0000F900F900F90DF91CF911F910F91FF9090
:1004E000EF90DF90CF90BF90AF909F908F90089546
:1004F000CF93DF93EC0180910B01882331F083E0EF
:100500000E94D2011816190634F081E090E09B8316
:100510008A8380E090E0DF91CF9108950C94AD0440
:100520000F931F93CF93DF931F92CDB7DEB7182F92
:10053000062F60EF83E492E049830E943301612F2C
:1005400083E492E00E943301602F83E492E00E94F2
:1005500033014981642F83E492E00E94330167EF05
:1005600083E492E00E9433010F90DF91CF911F91BD
:100570000F910C94AD040F931F93CF93DF931F92B1
:10058000CDB7DEB78C01FC018485958597FF0EC041
:10059000CE0101960E948705019719F4298130E068
:1005A00002C02FEF3FEFF80135872487F8018485DB
:1005B00095850F90DF91CF911F910F910895CF9363
:1005C000DF931F92CDB7DEB7FC018485958597FD3B
:1005D00005C02FEF3FEF358724870BC0CE01019672
:1005E0000E948705019719F4898190E002C08FEF7E
:1005F0009FEF0F90DF91CF9108950E941F0C8DE423
:1006000099E4A4E4B9E4FB0180839183A283B383DA
:1006100084E00895CF92DF92EF92FF920F931F93A1
:10062000CF93DF93CDB7DEB7C456D1090FB6F89498
:10063000DEBF0FBECDBF6C01DB019C919E5F9C9322
:10064000FE01319684E6DF011D928A95E9F788E084
:1006500089838BE08A8322E02C8391E09D839E83B3
:1006600039E0398774E07A879E879F873A8B44E226
:100670004B8B9C8B00E011E01E8B0D8B89E0E82EEC
:10068000F12CF88EEF8A998F3B8F7C8F2F8F98A358
:1006900053E059A387E08CA34DA39EA318A70FA3F3
:1006A00001E410E01AA709A786E08BA74CA72DA7A5
:1006B0009EA79FA789AB4AAB2BAB2CAB2DAB3FAB17
:1006C00048AF59AF9AAF5BAF9CAF2DAF9EAF2196AD
:1006D0003FAF219722964FAF229723965FAF239784
:1006E00024962FAF249725967FAF259726969FAF08
:1006F000269727969FAF279728969FAF28972A96E9
:100700003FAF2A9745E02B964FAF2B972D962FAFF3
:100710002D9760E470E02F967FAF6EAF2F976396B2
:100720004FAF639785E264968FAF649765969FAFEE
:10073000659766969FAF669767969FAF679768962F
:100740003FAF689769964FAF69976B962FAF6B97DE
:100750006D967FAF6EAF6D97A1964FAFA197A296A2
:100760008FAFA297A3969FAFA397A4969FAFA4978E
:10077000A5965FAFA597D60112969C9112979B8381
:100780009B879F5F9A8F9D8F13968C912C968FAF2E
:100790002C978F5F80686A968FAF6A9744E650E027
:1007A000BF0180E00E94B506CC59DF4F0FB6F89428
:1007B000DEBF0FBECDBFDF91CF911F910F91FF9094
:1007C000EF90DF90CF90089568E072E080E090E0D5
:1007D0000E94B80463EE71E085E290E00E94B804E4
:1007E00064E771E08AE490E00E94B80469E971E08E
:1007F0008FE690E00C94B80440913B0250913C028B
:100800002091390230913A0242175307B4F4909183
:10081000E8009570E1F39091E80092FD19C0809393
:10082000F10080913B0290913C0201968F739927D1
:10083000892B19F48EEF8093E80080913B02909110
:100840003C02019690933C0280933B0281E0089524
:1008500080E00895615030F02091F100FC01208388
:100860000196F8CF289884E68093410208958091FC
:10087000310281110DC082E080932D0284E08093CB
:100880002E021092300210922F0281E080933102EA
:100890008DE292E008953FB7F8948091A50290917F
:1008A000A602A091A702B091A80226B5A89B05C0F8
:1008B0002F3F19F00196A11DB11D3FBFBA2FA92FDF
:1008C000982F8827820F911DA11DB11DBC01CD015C
:1008D00042E0660F771F881F991F4A95D1F7089548
:1008E000CF92DF92EF92FF920F931F93CF93DF93FC
:1008F0001F92CDB7DEB7182F062FE42E862F880F54
:100900008E5F99830E94FC0383E00E94FC03F12E1A
:10091000C12E9981D92E8C2D8F19801798F4F6014C
:10092000E7FE02C0849101C080810E94FC03182F61
:1009300080E00E94FC038123FFEFCF1ADF0A8111C0
:10094000EACF01C081E00F90DF91CF911F910F910D
:10095000FF90EF90DF90CF90089583E08093E900BF
:100960008091F200882319F08AE38093E8000895CB
:10097000EF92FF920F931F93CF93DF938B010B5D49
:100980001F4FEB017C01E61AF70AC7018C0F9D1F70
:100990000E94240C8993C017D107B9F781E0DF9139
:1009A000CF911F910F91FF90EF900895EF92FF92DA
:1009B0000F931F93CF93DF937C018B01C0E0D0E0B6
:1009C000F80161918F01CE018E0D9F1D0E942C0CAC
:1009D0002196C532D105A1F781E0DF91CF911F911A
:1009E0000F91FF90EF900895BC01009791F0FC01EA
:1009F00001900020E9F73197AF01481B590BE091B6
:100A00004302F09144020280F381E02D83E492E0FE
:100A1000099480E090E008958F929F92AF92BF92E8
:100A2000CF92DF92EF92FF920F931F93CF93DF93BA
:100A3000CDB7DEB7A1970FB6F894DEBF0FBECDBF1E
:100A40006C01990FEE08FF08F7FE31C0E0914302F8
:100A5000F09144020190F081E02D6DE283E492E098
:100A600009958C0122273327A9012C193D094E092C
:100A70005F0919A2CE0181967C019AE0892E912C02
:100A8000A12CB12CCA01B901A50194010E94F70B58
:100A9000605DF70162937F01211531054105510524
:100AA00089F7CF010E94F404800F911F1DC0A70198
:100AB000960119A28E010F5D1F4F8AE0C82ED12C1E
:100AC000E12CF12CCA01B901A70196010E94F70B94
:100AD000605DF80162938F012115310541055105D3
:100AE00089F7CF010E94F404A1960FB6F894DEBFF7
:100AF0000FBECDBFDF91CF911F910F91FF90EF906F
:100B0000DF90CF90BF90AF909F908F900895FC01A1
:100B100080914202811103C08FEF9FEF08959FB72C
:100B2000F89482E08093E9002091F20030E0121600
:100B3000130614F421E030E02115310559F028980E
:100B400084E6809341028091F10080838091F200DD
:100B5000882319F09FBFC90108958BE68093E800B0
:100B6000F9CF8F929F92AF92BF92CF92DF92EF9286
:100B7000FF926B017C010E944B044B015C01C1148C
:100B8000D104E104F104F1F00E944B04DC01CB013B
:100B900088199909AA09BB09883E9340A105B105A6
:100BA00070F321E0C21AD108E108F10888EE880E3E
:100BB00083E0981EA11CB11CC114D104E104F1040E
:100BC00019F7DDCFFF90EF90DF90CF90BF90AF90FF
:100BD0009F908F9008951F920F920FB60F9211243D
:100BE0002F933F938F939F93AF93BF938091A102D5
:100BF0009091A202A091A302B091A4023091A00210
:100C000023E0230F2D3720F40196A11DB11D05C04F
:100C100026E8230F0296A11DB11D2093A002809308
:100C2000A1029093A202A093A302B093A402809188
:100C3000A5029091A602A091A702B091A8020196E8
:100C4000A11DB11D8093A5029093A602A093A702B7
:100C5000B093A802BF91AF919F918F913F912F9137
:100C60000F900FBE0F901F9018951F920F920FB606
:100C70000F9211242F933F934F935F936F937F9322
:100C80008F939F93AF93BF93CF93EF93FF93C091B5
:100C9000E1008091E100837F8093E100C3FF0FC0FA
:100CA0001092E90081E08093EB001092EC0082E367
:100CB0008093ED001092420288E08093F000C2FF22
:100CC00018C00E94AD0480914002882339F08091C1
:100CD0004002815080934002882389F18091410233
:100CE000882339F08091410281508093410288230A
:100CF00041F1C4FF10C08091E2008E7E816080933C
:100D0000E2008091E1008F7E8093E10080913F02BC
:100D10008E7E806111C0C0FF16C08091E2008E7E81
:100D200080618093E2008091E1008E7E8093E100FB
:100D300080913F028E7E816080933F0204C05D9A65
:100D4000CDCF289AD6CFFF91EF91CF91BF91AF91A0
:100D50009F918F917F916F915F914F913F912F91D3
:100D60000F900FBE0F901F901895DF92EF92FF9299
:100D70000F931F93CF93DF93D82E8A017B01E40E4C
:100D8000F51EEB01CE15DF0571F0D7FE03C0FE01A5
:100D9000849101C088810E94FC0321968111F2CFC9
:100DA0008FEF9FEF01C0C801DF91CF911F910F918D
:100DB000FF90EF90DF9008950F931F93CF93DF93F1
:100DC0001F92CDB7DEB782E0898342E450E060E451
:100DD00071E080E80E94B5060E943704DC0112969B
:100DE0000D911C9113970115110569F0D801ED9132
:100DF000FC910280F381E02DBE016F5F7F4FC8013F
:100E0000099597FF07C089810F90DF91CF911F91BE
:100E10000F910895F80100851185E5CF1F920F927B
:100E20000FB60F921124CF92DF92EF92FF920F93A1
:100E30001F932F933F934F935F936F937F938F9362
:100E40009F93AF93BF93EF93FF93CF93DF93CDB770
:100E5000DEB76C97DEBFCDBF1092E9008091E8004D
:100E600083FFFAC168E0CE0145960E942A0482EF12
:100E70008093E8008D8987FF05C09091E80090FF7E
:100E8000FCCF03C09EEF9093E800982F907609F076
:100E9000C6C09E892F89188D91110CC0803829F405
:100EA00080913E028093F10002C01092F1001092F6
:100EB000F10047C1422F50E0512B913051F4811184
:100EC00040C14130510509F03CC180913E028D7F07
:100ED0000BC0933061F4811134C14130510509F0E8
:100EE00030C180913E02826080933E022AC19530DB
:100EF00041F48091E80080FFFCCF20682093E3005C
:100F000020C1963009F05FC0EB8CFC8C1092E90098
:100F100010923C0210923B02123091F510923A026C
:100F2000109239020E94DC0699E0BE016F5F7F4F8C
:100F3000DB01E92F1D92EA95E9F799831A8391E085
:100F40009E8390EA98879AEF998720913B0230918F
:100F50003C02275F3F4F3C832B838D831092E90037
:100F600010923C0210923B02F0923A02E092390257
:100F700049E050E080E00E94B5060E94DC06E1C036
:100F8000F0923A02E09239020E943704DC01129694
:100F9000ED90FC901397E114F10409F4C0C0D7015F
:100FA000ED91FC910480F581E02DBE016B5E7F4FD9
:100FB000C7010995009719F00CF0C3C0C6C0F7012E
:100FC000E084F184E8CF973009F4BFC0983021F471
:100FD00081E08093F100B5C0993009F0B2C0837010
:100FE00009F0B3C0EDE0F1E081E021E036E390816B
:100FF000992361F08093E9002093EB009191909305
:10100000EC003093ED008F5F873089F78EE7809397
:10101000EA001092EA008F898093420292C08B8D81
:101020009C8D1092E90010923C0210923B0290932A
:101030003A0280933902898D811156C08E899D892B
:10104000913A59F4813209F080C047E050E064E001
:1010500071E080E00E94B50674C0913209F075C05D
:10106000833289F4888D90E0982F88272F89822BEE
:10107000A0E0B0E08093000190930101A0930201F1
:10108000B09303015EC0803269F48091E80082FF72
:10109000FCCF67E084E091E00E942A048BEF80930C
:1010A000E80006C0823209F04CC08F8980930B01A2
:1010B00080913D02882319F0EEEFFAE002C0E0E0F3
:1010C000F8E08091040190910501A0910601B09192
:1010D0000701803B9440A105B10509F088C08091CB
:1010E0000B0180FFA0C083C00E943704DC01129670
:1010F0000D911C9113970115110539F1D801ED914E
:10110000FC910190F081E02DBE016B5E7F4FC80124
:101110000995811116C0F80100851185ECCF1130B9
:10112000C1F0133091F48F89882309F455C08230BF
:10113000E9F440E866E08EE891E00E9470048823BC
:1011400021F08EEF8093E80087C081E28093EB006E
:1011500083C08B8D9C8D089711F410939F02809112
:101160009F02811136C065E971E038C0813029F4F1
:1011700040E867E086E891E0E0CF833031F70E94F5
:101180003704DC011296ED90FC9013978E010F5FEF
:101190001F4F6801E114F10479F0D701ED91FC9142
:1011A0000680F781E02DB801C7010995080F111DD0
:1011B000F701E084F184EECFD8011C92F601019092
:1011C0000020E9F73197BF016C197D0940E0C601A5
:1011D000B4CF67EA71E002C062E871E061157105A1
:1011E00009F4B3CFFB01449150E080E833CF0FB650
:1011F000F894A895809160008861809360001092B7
:1012000060000FBEA895EE3F2AE0F20739F080910A
:10121000FE0A9091FF0A9183808393CF1092FF0A78
:101220001092FE0A8ECFEE3F8AE0F80731F08081FF
:1012300091819093FF0A8093FE0A87E797E7918355
:1012400080839BE088E10FB6F894A89580936000B6
:101250000FBE9093600075CF6C960FB6F894DEBF0A
:101260000FBECDBFDF91CF91FF91EF91BF91AF91B5
:101270009F918F917F916F915F914F913F912F91AE
:101280001F910F91FF90EF90DF90CF900F900FBEC6
:101290000F901F901895CF93DF9300D000D0CDB75B
:1012A000DEB7789484B5826084BD84B5816084BDE6
:1012B00085B5826085BD85B5816085BD80916E00F4
:1012C000816080936E001092810080918100826025
:1012D0008093810080918100816080938100809162
:1012E0008000816080938000809191008260809373
:1012F0009100809191008160809391008091900095
:101300008160809390008091C10084608093C100CF
:101310008091C10082608093C1008091C100816092
:101320008093C1008091C30081608093C30080914D
:10133000C00082608093C0008091C2008160809371
:10134000C20080917A00846080937A0080917A0054
:10135000826080937A0080917A00816080937A0025
:1013600080917A00806880937A00109242021092F5
:101370003E0210923F028091D70081608093D70097
:1013800080EA8093D80089B5806189BD89B5826083
:1013900089BD09B400FEFDCF61E070E080E090E01F
:1013A0000E94B1058091D8008F7C80618093D80025
:1013B0008091E000807F8093E0008091E1008E7E4C
:1013C0008093E1008DE08093E200559A209AEEEF41
:1013D000FFE7859194918B3F9C4D19F481E08093B8
:1013E0003D020E94E40380917A00887F80937A0016
:1013F00080917A00846080937A008FEF9FEF9093C2
:10140000500280934F0210910B016AE070E080E07F
:1014100090E00E94B1051123B1F384E591E00E94B0
:10142000F40481E090E00E940C0588E691E00E94BF
:10143000F40480E090E00E940C0577247394B8E0F7
:101440006B2E10E8512EF9E04F2EA0E93A2E83E4DE
:1014500092E00E944901892B09F498C083E492E04C
:101460000E94DF028F3FEFEF9E0789F330917301F7
:10147000332309F481C0873F09F06FC010927301D4
:1014800010916A01812F8170212F30E035952795C9
:101490002330310509F452C05CF42130310509F4E0
:1014A0003FC00CF044C0232B91F640E050E036C022
:1014B0002830310569F02436310589F024303105B2
:1014C00031F660916B01E62FF0E0E756FE4F3CC02D
:1014D00040E050E065E2812F0E949002B8CF88235F
:1014E000C9F068E072E080E090E00E94D60463EE0C
:1014F00071E085E290E00E94D60464E771E08AE43E
:1015000090E00E94D60469E971E08FE690E00E94C5
:10151000D60402C00E94E40341E050E061E0DBCF6A
:1015200060916B01E62FF0E0E85FFD4F0DC0609128
:101530006B01E62FF0E0ED51FE4F06C060916B01AC
:10154000E62FF0E0EC58FE4F882321F080916C01EB
:1015500080837DCF408150E0BECF209171013091DA
:101560007201F901E659FE4F80832F5F3F4F3093A0
:101570007201209371016BCF803F09F068CF7092A8
:101580007301109272011092710161CF58E0852EA3
:1015900052E0952E6EEBE62E61E0F62E79E9C72E2D
:1015A00071E0D72E00E010E0F40181914F01882313
:1015B00009F48AC0F801ED5EFE4F2080622D617053
:1015C00081E00E94630121FA662760F982E00E94AF
:1015D000630122FA662760F983E00E946301822D8D
:1015E00090E043E0959587954A95E1F7E82F8231A1
:1015F000910514F0EEEEE80FF0E0EC5CFE4FE491A4
:1016000020917B00E3FBAA24A0F8B12CC50135E0B2
:10161000880F991F3A95E1F7922F9F7D892B809330
:101620007B00E770E064E0937C0080917A00806446
:1016300080937A0080917A0086FDFCCF80917800BB
:101640002091790090E0922BF801ED51FE4F20811E
:1016500030E0F70182179307E4F02080211015C0D5
:10166000F601208149823A822B8323E09595879564
:101670002A95E1F78C838091960244E050E0BE0108
:101680006F5F7F4F8F5F0E94D2012394F70120820A
:101690001BC080818823C1F0F801EC58FE4F908177
:1016A000981790F4F601808169825A828B831C829C
:1016B0008091960244E050E0BE016F5F7F4F8F5FE4
:1016C0000E94D201F70110820F5F1F4FFFEFEF1A48
:1016D000FF0A2FEFC21AD20A0532110509F064CFB2
:1016E00080E090E0892B09F4B2CE0E940000ABCEDE
:1016F000CF93DF93109246021092450288EE93E05A
:10170000A0E0B0E08093470290934802A093490282
:10171000B0934A028CE391E0909344028093430299
:101720008FEF9FEF9093500280934F0282E080935F
:101730009702809398028DE992E090939A028093A9
:10174000990210929C0210929B028CE491E090937B
:1017500094028093930280E880939D0281E88093B5
:101760009E020E943704FC0121818091970290E043
:10177000820F911D0897C4F5A281B381109729F4B7
:1017800083E992E0938382830EC018968D919C9199
:101790001997009711F0DC01F8CF83E992E01996D0
:1017A0009C938E931897808180939502818180937A
:1017B0009602908180919802890F808380E09091B9
:1017C0009702891788F49181A92FB0E0A45FBE4FDA
:1017D000C0919902D0919A02C80FD11D28812C93F3
:1017E0009F5F91838F5FEBCFDF91CF910895A1E24F
:1017F0001A2EAA1BBB1BFD010DC0AA1FBB1FEE1F8B
:10180000FF1FA217B307E407F50720F0A21BB30BD5
:10181000E40BF50B661F771F881F991F1A9469F751
:1018200060957095809590959B01AC01BD01CF01AD
:101830000895EE0FFF1F0590F491E02D099481E0CB
:1018400090E0F8940C943A0CF999FECF92BD81BDCA
:10185000F89A992780B50895262FF999FECF1FBAD7
:1018600092BD81BD20BD0FB6F894FA9AF99A0FBEC9
:0818700001960895F894FFCFE2
:10187800FFFFFFFF00E100000000000000C18081C1
:10188800000000C0C8D0D8909192939495969798EC
:10189800999A9B9C9D9E9FA0A1A2A3A4A5A6A7A838
:1018A800A9AAABACADAEAFE00000000033017802EE
:1018B8004901DF02BB028E0200000000C9010A03D1
:1018C800C601FF0257656C636F6D6520746F2061F8
:0A18D8004472756D732076002E0037
:00000001FF
